:10000000020100120A890000000000000000000048
:100100007840793075A88175B801D2B2C2B7C2B64D
:10011000D2977438120AF9740E120AF97401120A8D
:10012000F97406120AF97480120AF97401120AF9B4
:100130007480120AF97453120B077454120B07746B
:1001400052120B07744F120B07744E120B077447B1
:10015000120B077420120B077426120B077420125F
:100160000B077453120B077441120B077446120BE2
:10017000077445120B077420120B0774C0120AF99A
:100180007453120B077445120B077443120B077458
:1001900055120B077452120B077449120B07745453
:1001A000120B077459120B077420120B07745312A9
:1001B0000B077459120B077453120B077454120B6C
:1001C000077445120B07744D120B077453120B077B
:1001D0007401120AF97480120AF91201E002021382
:1001E0007E007F0079307D061201EC2274A0120A95
:1001F00001EF120A3974A1120A01120A5FF709DD30
:1002000004120A7822C291D2900000000000C2902D
:100210000201FA7445120B07744E120B0774541244
:100220000B077445120B077452120B077420120B44
:10023000077450120B077441120B077453120B070B
:100240007453120B077457120B07744F120B077479
:1002500052120B077444120B0774C5120AF9784046
:1002600075A0FF75A0F0E5A054F0B4F0F6120B15E0
:10027000E5A054F0B4F00280F4120B15E5A054F0A0
:10028000B4F00280E8C2A0D2A1D2A2D2A3E5A054C9
:10029000FEB4FE2FD2A0C2A1D2A2D2A3E5A054FDEB
:1002A000B4FD25D2A0D2A1C2A2D2A3E5A054FBB432
:1002B000FB1BD2A0D2A1D2A2C2A3E5A054F7B4F7EF
:1002C0001180AA900B1E800F900B21800A900B24A6
:1002D0008005900B278000335003A380FAE493F647
:1002E000B44502800FB44303020634742A120B078C
:1002F000080202637840E6B5301C08E6B5311708FD
:10030000E6B5321208E6B5330D08E6B5340808E65E
:10031000B5350302039D7401120AF97480120AF9BB
:100320007457120B077452120B07744F120B077499
:100330004E120B077447120B077420120B077450F0
:10034000120B077441120B077453120B07745312EC
:100350000B077457120B07744F120B077452120BD2
:10036000077444120B07D2B6120B15120B15120BA1
:1003700015120B15120B15120B15120B15120B156E
:10038000120B15120B15120B15120B15120B151261
:100390000B15120B15120B15C2B6020100740112D7
:1003A0000AF97480120AF97443120B07744F120B86
:1003B000077452120B077452120B077445120B0785
:1003C0007443120B077454120B077420120B07743A
:1003D00050120B077441120B077453120B0774531E
:1003E000120B077457120B07744F120B077452123B
:1003F0000B077444120B07D2B7120B15120B151210
:100400000B15120B15120B15120B15120B15120BE7
:1004100015120B15120B15120B15120B15784074D3
:1004200001120AF97480120AF97445120B07744E0E
:10043000120B077454120B077445120B07745212F7
:100440000B077420120B077450120B077441120B28
:10045000077453120B077453120B077457120B07D0
:10046000744F120B077452120B077444120B07746B
:10047000C5120AF975A0FF75A0F0E5A054F0B4F01C
:10048000F6120B15E5A054F0B4F00280F4120B152F
:10049000E5A054F0B4F00280E8C2A0D2A1D2A2D26A
:1004A000A3E5A054FEB4FE2FD2A0C2A1D2A2D2A333
:1004B000E5A054FDB4FD25D2A0D2A1C2A2D2A3E5ED
:1004C000A054FBB4FB1BD2A0D2A1D2A2C2A3E5A030
:1004D00054F7B4F71180AA900B42800F900B45801F
:1004E0000A900B488005900B4B8000335003A3808B
:1004F000FAE493F6B44502800FB443030206347461
:100500002A120B07080204777840E6B5301C08E68B
:10051000B5311708E6B5321208E6B5330D08E6B571
:10052000340808E6B535030205B17401120AF974FE
:1005300080120AF97457120B077452120B07744F8A
:10054000120B07744E120B077447120B077420121C
:100550000B077450120B077441120B077453120BE4
:10056000077453120B077457120B07744F120B07C3
:100570007452120B077444120B07D2B6120B1512E9
:100580000B15120B15120B15120B15120B15120B66
:1005900015120B15120B15120B15120B15120B154C
:1005A000120B15120B15120B15120B15C2B6020405
:1005B0001D7401120AF97480120AF97443120B07B0
:1005C000744F120B077452120B077452120B0774FC
:1005D00045120B077443120B077454120B07742057
:1005E000120B077450120B077441120B077453124D
:1005F0000B077453120B077457120B07744F120B2F
:10060000077452120B077444120B07C2B7120B1572
:10061000120B15120B15120B15120B15120B1512CE
:100620000B15120B15120B15120B15120B15120BC5
:100630001502010078407401120AF97480120AF957
:100640007443120B077448120B077441120B0774A2
:100650004E120B077447120B077445120B077420D8
:10066000120B077450120B077441120B07745312CC
:100670000B077453120B077457120B07744F120BAE
:10068000077452120B077444120B07120B15120B4E
:1006900015120B15120B15120B15120B15120B154B
:1006A000120B15120B15120B15120B15120B1574DC
:1006B00001120AF97480120AF97445120B07744E7C
:1006C000120B077454120B077445120B0774521265
:1006D0000B077420120B07744F120B07744C120B8C
:1006E000077444120B077420120B077450120B0787
:1006F0007441120B077453120B077453120B0774D7
:10070000C5120AF975A0F0E5A054F0B4F0F6120B8A
:1007100015E5A054F0B4F00280F4120B15E5A054D6
:10072000F0B4F00280E8C2A0D2A1D2A2D2A3E5A088
:1007300054FEB4FE2FD2A0C2A1D2A2D2A3E5A054EF
:10074000FDB4FD25D2A0D2A1C2A2D2A3E5A054FB44
:10075000B4FB1BD2A0D2A1D2A2C2A3E5A054F7B48D
:10076000F71180AA900B36800F900B39800A900BFE
:100770003C8005900B278000335003A380FAE4935C
:10078000F6B445028009742A120B070802070478A0
:1007900040E6B5301C08E6B5311708E6B532120858
:1007A000E6B5330D08E6B5340808E6B535030208AA
:1007B000387401120AF97480120AF97457120B077F
:1007C0007452120B07744F120B07744E120B0774FE
:1007D00047120B077420120B077450120B07744159
:1007E000120B077453120B077453120B0774571232
:1007F0000B07744F120B077452120B077444120B41
:1008000007D2B6120B15120B15120B15120B15127F
:100810000B15120B15120B15120B15120B15120BD3
:1008200015120B15120B15120B15120B15120B15B9
:10083000120B15C2B60201007401120AF97480127B
:100840000AF97443120B07744F120B077452120B00
:10085000077452120B077445120B077443120B07EF
:100860007454120B077420120B077450120B077488
:1008700041120B077453120B077453120B07745772
:10088000120B07744F120B077452120B07744412A9
:100890000B07120B15120B15120B15120B15120B61
:1008A00015120B15120B15120B15120B15120B1539
:1008B000120B15120B157401120AF97480120AF941
:1008C0007445120B07744E120B077454120B077405
:1008D00045120B077452120B077420120B07744E4B
:1008E000120B077445120B077457120B0774201272
:1008F0000B077450120B077441120B077453120B41
:10090000077453120B0774C5120AF9793075A0F0F9
:10091000E5A054F0B4F0F6120B15E5A054F0B4F0D5
:100920000280F4120B15E5A054F0B4F00280E8C286
:10093000A0D2A1D2A2D2A3E5A054FEB4FE2FD2A091
:10094000C2A1D2A2D2A3E5A054FDB4FD25D2A0D26B
:10095000A1C2A2D2A3E5A054FBB4FB1BD2A0D2A19A
:10096000D2A2C2A3E5A054F7B4F71180AA900B2A33
:10097000800F900B2D800A900B308005900B3380F8
:1009800000335003A380FAE493F7B445028009745E
:100990002A120B070902090D12099E0201007E00AE
:1009A0007F0079307D061209AA2274A0120A01EF95
:1009B000120A39E7120A3909DDF9120A782274A0FD
:1009C0007A08C2910000000000C290335005D29115
:1009D0000209D5C291D2900000000000C290DAEB6B
:1009E000D2910000D2900000000000309103020973
:1009F000BEC290C2910000000000D2900000D291CF
:100A0000227A08D291D2900000000000C29100002A
:100A1000000000C290335005D291020A1FC291D249
:100A2000900000000000C290DAEBD291000000D2EA
:100A3000900000000000C290227A08335005D29145
:100A4000020A45C291D2900000000000C290DAEB89
:100A5000D291000000D2900000000000C290227AE3
:100A600008D291C290000000000000D290C33091E3
:100A700001B333DAEEC29022C2910000000000D22E
:100A8000900000000000D291227438120AF9740E0E
:100A9000120AF97401120AF97406120AF974801222
:100AA0000AF97401120AF97480120AF97444120BDB
:100AB000077445120B077446120B077455120B0787
:100AC000744C120B077454120B077420120B07742A
:100AD0004D120B07744F120B077444120B07744529
:100AE000120B077530307531307532307533307513
:100AF000343075353012099E22F580C2B3C2B4D2AB
:100B0000B5120B15C2B522F580D2B3C2B4D2B5125C
:100B10000B15C2B5227B967CFFDCFEDBFA2231325C
:100B2000333435363738394330453132333435365E
:100B30003738394330453132333435363738394335
:100B4000304531323334353637383943304500009B
:00000001FF
